{
  "_format": "hh-sol-artifact-1",
  "contractName": "ElementalHatcherDirect",
  "sourceName": "contracts/ElementalHatcherDirect.sol",
  "abi": [
    {
      "inputs": [
        {
          "internalType": "address",
          "name": "_nftContract",
          "type": "address"
        },
        {
          "internalType": "address",
          "name": "_treasury",
          "type": "address"
        }
      ],
      "stateMutability": "nonpayable",
      "type": "constructor"
    },
    {
      "inputs": [
        {
          "internalType": "address",
          "name": "owner",
          "type": "address"
        }
      ],
      "name": "OwnableInvalidOwner",
      "type": "error"
    },
    {
      "inputs": [
        {
          "internalType": "address",
          "name": "account",
          "type": "address"
        }
      ],
      "name": "OwnableUnauthorizedAccount",
      "type": "error"
    },
    {
      "inputs": [],
      "name": "ReentrancyGuardReentrantCall",
      "type": "error"
    },
    {
      "anonymous": false,
      "inputs": [
        {
          "indexed": true,
          "internalType": "address",
          "name": "user",
          "type": "address"
        },
        {
          "indexed": true,
          "internalType": "uint256",
          "name": "tokenId",
          "type": "uint256"
        }
      ],
      "name": "AdventurerClaimed",
      "type": "event"
    },
    {
      "anonymous": false,
      "inputs": [
        {
          "indexed": true,
          "internalType": "address",
          "name": "previousOwner",
          "type": "address"
        },
        {
          "indexed": true,
          "internalType": "address",
          "name": "newOwner",
          "type": "address"
        }
      ],
      "name": "OwnershipTransferred",
      "type": "event"
    },
    {
      "inputs": [],
      "name": "HATCH_PRICE",
      "outputs": [
        {
          "internalType": "uint256",
          "name": "",
          "type": "uint256"
        }
      ],
      "stateMutability": "view",
      "type": "function"
    },
    {
      "inputs": [],
      "name": "MAX_SUPPLY",
      "outputs": [
        {
          "internalType": "uint256",
          "name": "",
          "type": "uint256"
        }
      ],
      "stateMutability": "view",
      "type": "function"
    },
    {
      "inputs": [],
      "name": "claimAdventurer",
      "outputs": [],
      "stateMutability": "nonpayable",
      "type": "function"
    },
    {
      "inputs": [],
      "name": "claimedCount",
      "outputs": [
        {
          "internalType": "uint256",
          "name": "",
          "type": "uint256"
        }
      ],
      "stateMutability": "view",
      "type": "function"
    },
    {
      "inputs": [
        {
          "internalType": "uint256",
          "name": "",
          "type": "uint256"
        }
      ],
      "name": "claimedTokenIds",
      "outputs": [
        {
          "internalType": "bool",
          "name": "",
          "type": "bool"
        }
      ],
      "stateMutability": "view",
      "type": "function"
    },
    {
      "inputs": [],
      "name": "getAvailableTokenCount",
      "outputs": [
        {
          "internalType": "uint256",
          "name": "",
          "type": "uint256"
        }
      ],
      "stateMutability": "view",
      "type": "function"
    },
    {
      "inputs": [],
      "name": "getClaimedTokenCount",
      "outputs": [
        {
          "internalType": "uint256",
          "name": "",
          "type": "uint256"
        }
      ],
      "stateMutability": "view",
      "type": "function"
    },
    {
      "inputs": [],
      "name": "nftContract",
      "outputs": [
        {
          "internalType": "address",
          "name": "",
          "type": "address"
        }
      ],
      "stateMutability": "view",
      "type": "function"
    },
    {
      "inputs": [],
      "name": "owner",
      "outputs": [
        {
          "internalType": "address",
          "name": "",
          "type": "address"
        }
      ],
      "stateMutability": "view",
      "type": "function"
    },
    {
      "inputs": [],
      "name": "renounceOwnership",
      "outputs": [],
      "stateMutability": "nonpayable",
      "type": "function"
    },
    {
      "inputs": [
        {
          "internalType": "address",
          "name": "newOwner",
          "type": "address"
        }
      ],
      "name": "transferOwnership",
      "outputs": [],
      "stateMutability": "nonpayable",
      "type": "function"
    },
    {
      "inputs": [],
      "name": "treasury",
      "outputs": [
        {
          "internalType": "address",
          "name": "",
          "type": "address"
        }
      ],
      "stateMutability": "view",
      "type": "function"
    }
  ],
  "bytecode": "0x60c06040523480156200001157600080fd5b506040516200117138038062001171833981810160405281019062000037919062000348565b33600073ffffffffffffffffffffffffffffffffffffffff168173ffffffffffffffffffffffffffffffffffffffff1603620000ad5760006040517f1e4fbdf7000000000000000000000000000000000000000000000000000000008152600401620000a49190620003a0565b60405180910390fd5b620000be816200021a60201b60201c565b5060018081905550600073ffffffffffffffffffffffffffffffffffffffff168273ffffffffffffffffffffffffffffffffffffffff160362000138576040517f08c379a00000000000000000000000000000000000000000000000000000000081526004016200012f906200041e565b60405180910390fd5b600073ffffffffffffffffffffffffffffffffffffffff168173ffffffffffffffffffffffffffffffffffffffff1603620001aa576040517f08c379a0000000000000000000000000000000000000000000000000000000008152600401620001a19062000490565b60405180910390fd5b8173ffffffffffffffffffffffffffffffffffffffff1660808173ffffffffffffffffffffffffffffffffffffffff16815250508073ffffffffffffffffffffffffffffffffffffffff1660a08173ffffffffffffffffffffffffffffffffffffffff16815250505050620004b2565b60008060009054906101000a900473ffffffffffffffffffffffffffffffffffffffff169050816000806101000a81548173ffffffffffffffffffffffffffffffffffffffff021916908373ffffffffffffffffffffffffffffffffffffffff1602179055508173ffffffffffffffffffffffffffffffffffffffff168173ffffffffffffffffffffffffffffffffffffffff167f8be0079c531659141344cd1fd0a4f28419497f9722a3daafe3b4186f6b6457e060405160405180910390a35050565b600080fd5b600073ffffffffffffffffffffffffffffffffffffffff82169050919050565b60006200031082620002e3565b9050919050565b620003228162000303565b81146200032e57600080fd5b50565b600081519050620003428162000317565b92915050565b60008060408385031215620003625762000361620002de565b5b6000620003728582860162000331565b9250506020620003858582860162000331565b9150509250929050565b6200039a8162000303565b82525050565b6000602082019050620003b760008301846200038f565b92915050565b600082825260208201905092915050565b7f496e76616c6964204e465420636f6e7472616374206164647265737300000000600082015250565b600062000406601c83620003bd565b91506200041382620003ce565b602082019050919050565b600060208201905081810360008301526200043981620003f7565b9050919050565b7f496e76616c696420747265617375727920616464726573730000000000000000600082015250565b600062000478601883620003bd565b9150620004858262000440565b602082019050919050565b60006020820190508181036000830152620004ab8162000469565b9050919050565b60805160a051610c8b620004e66000396000818161023d01526103c30152600081816102c501526103870152610c8b6000f3fe608060405234801561001057600080fd5b50600436106100b45760003560e01c80638da5cb5b116100715780638da5cb5b1461016b578063c08fa1a414610189578063d5370904146101a7578063d56d229d146101c5578063d6beffeb146101e3578063f2fde38b146101ed576100b4565b8063034b9904146100b95780632713727a146100d757806332cb6b0c1461010757806361d027b31461012557806368fd2efd14610143578063715018a614610161575b600080fd5b6100c1610209565b6040516100ce91906107b5565b60405180910390f35b6100f160048036038101906100ec9190610801565b610215565b6040516100fe9190610849565b60405180910390f35b61010f610235565b60405161011c91906107b5565b60405180910390f35b61012d61023b565b60405161013a91906108a5565b60405180910390f35b61014b61025f565b60405161015891906107b5565b60405180910390f35b610169610269565b005b61017361027d565b60405161018091906108a5565b60405180910390f35b6101916102a6565b60405161019e91906107b5565b60405180910390f35b6101af6102ac565b6040516101bc91906107b5565b60405180910390f35b6101cd6102c3565b6040516101da91906108a5565b60405180910390f35b6101eb6102e7565b005b610207600480360381019061020291906108ec565b610483565b005b67016345785d8a000081565b60036020528060005260406000206000915054906101000a900460ff1681565b61271081565b7f000000000000000000000000000000000000000000000000000000000000000081565b6000600254905090565b610271610509565b61027b6000610590565b565b60008060009054906101000a900473ffffffffffffffffffffffffffffffffffffffff16905090565b60025481565b60006002546127106102be9190610948565b905090565b7f000000000000000000000000000000000000000000000000000000000000000081565b6102ef610654565b61271060025410610335576040517f08c379a000000000000000000000000000000000000000000000000000000000815260040161032c906109ff565b60405180910390fd5b600061033f61069a565b905060016003600083815260200190815260200160002060006101000a81548160ff0219169083151502179055506002600081548092919061038090610a1f565b91905055507f000000000000000000000000000000000000000000000000000000000000000073ffffffffffffffffffffffffffffffffffffffff166323b872dd7f000000000000000000000000000000000000000000000000000000000000000033846040518463ffffffff1660e01b815260040161040293929190610a67565b600060405180830381600087803b15801561041c57600080fd5b505af1158015610430573d6000803e3d6000fd5b50505050803373ffffffffffffffffffffffffffffffffffffffff167f1698438c124846665bf3551d426f46fe4b8ff030ccfe14512b94a62c7f3519fd60405160405180910390a35061048161078b565b565b61048b610509565b600073ffffffffffffffffffffffffffffffffffffffff168173ffffffffffffffffffffffffffffffffffffffff16036104fd5760006040517f1e4fbdf70000000000000000000000000000000000000000000000000000000081526004016104f491906108a5565b60405180910390fd5b61050681610590565b50565b610511610794565b73ffffffffffffffffffffffffffffffffffffffff1661052f61027d565b73ffffffffffffffffffffffffffffffffffffffff161461058e57610552610794565b6040517f118cdaa700000000000000000000000000000000000000000000000000000000815260040161058591906108a5565b60405180910390fd5b565b60008060009054906101000a900473ffffffffffffffffffffffffffffffffffffffff169050816000806101000a81548173ffffffffffffffffffffffffffffffffffffffff021916908373ffffffffffffffffffffffffffffffffffffffff1602179055508173ffffffffffffffffffffffffffffffffffffffff168173ffffffffffffffffffffffffffffffffffffffff167f8be0079c531659141344cd1fd0a4f28419497f9722a3daafe3b4186f6b6457e060405160405180910390a35050565b600260015403610690576040517f3ee5aeb500000000000000000000000000000000000000000000000000000000815260040160405180910390fd5b6002600181905550565b6000806127104244336002546040516020016106b99493929190610b07565b6040516020818303038152906040528051906020012060001c6106dc9190610b84565b905060005b61271081101561074c57600061271082846106fc9190610bb5565b6107069190610b84565b90506003600082815260200190815260200160002060009054906101000a900460ff1661073857809350505050610788565b50808061074490610a1f565b9150506106e1565b506040517f08c379a000000000000000000000000000000000000000000000000000000000815260040161077f90610c35565b60405180910390fd5b90565b60018081905550565b600033905090565b6000819050919050565b6107af8161079c565b82525050565b60006020820190506107ca60008301846107a6565b92915050565b600080fd5b6107de8161079c565b81146107e957600080fd5b50565b6000813590506107fb816107d5565b92915050565b600060208284031215610817576108166107d0565b5b6000610825848285016107ec565b91505092915050565b60008115159050919050565b6108438161082e565b82525050565b600060208201905061085e600083018461083a565b92915050565b600073ffffffffffffffffffffffffffffffffffffffff82169050919050565b600061088f82610864565b9050919050565b61089f81610884565b82525050565b60006020820190506108ba6000830184610896565b92915050565b6108c981610884565b81146108d457600080fd5b50565b6000813590506108e6816108c0565b92915050565b600060208284031215610902576109016107d0565b5b6000610910848285016108d7565b91505092915050565b7f4e487b7100000000000000000000000000000000000000000000000000000000600052601160045260246000fd5b60006109538261079c565b915061095e8361079c565b925082820390508181111561097657610975610919565b5b92915050565b600082825260208201905092915050565b7f416c6c20616476656e7475726572732068617665206265656e20636c61696d6560008201527f6400000000000000000000000000000000000000000000000000000000000000602082015250565b60006109e960218361097c565b91506109f48261098d565b604082019050919050565b60006020820190508181036000830152610a18816109dc565b9050919050565b6000610a2a8261079c565b91507fffffffffffffffffffffffffffffffffffffffffffffffffffffffffffffffff8203610a5c57610a5b610919565b5b600182019050919050565b6000606082019050610a7c6000830186610896565b610a896020830185610896565b610a9660408301846107a6565b949350505050565b6000819050919050565b610ab9610ab48261079c565b610a9e565b82525050565b60008160601b9050919050565b6000610ad782610abf565b9050919050565b6000610ae982610acc565b9050919050565b610b01610afc82610884565b610ade565b82525050565b6000610b138287610aa8565b602082019150610b238286610aa8565b602082019150610b338285610af0565b601482019150610b438284610aa8565b60208201915081905095945050505050565b7f4e487b7100000000000000000000000000000000000000000000000000000000600052601260045260246000fd5b6000610b8f8261079c565b9150610b9a8361079c565b925082610baa57610ba9610b55565b5b828206905092915050565b6000610bc08261079c565b9150610bcb8361079c565b9250828201905080821115610be357610be2610919565b5b92915050565b7f4e6f20756e636c61696d656420746f6b656e7320617661696c61626c65000000600082015250565b6000610c1f601d8361097c565b9150610c2a82610be9565b602082019050919050565b60006020820190508181036000830152610c4e81610c12565b905091905056fea26469706673582212208cab28061fdabad7b3f58492e3471363ffa3b3a37016a5efa29591f233b4b2d164736f6c63430008140033",
  "linkReferences": {},
  "deployedLinkReferences": {}
}