{
  "_format": "hh-sol-artifact-1",
  "contractName": "ElementalHatcherOptimized",
  "sourceName": "contracts/ElementalHatcherOptimized.sol",
  "abi": [
    {
      "inputs": [
        {
          "internalType": "address",
          "name": "_nftContract",
          "type": "address"
        },
        {
          "internalType": "address",
          "name": "_treasury",
          "type": "address"
        }
      ],
      "stateMutability": "nonpayable",
      "type": "constructor"
    },
    {
      "inputs": [
        {
          "internalType": "address",
          "name": "owner",
          "type": "address"
        }
      ],
      "name": "OwnableInvalidOwner",
      "type": "error"
    },
    {
      "inputs": [
        {
          "internalType": "address",
          "name": "account",
          "type": "address"
        }
      ],
      "name": "OwnableUnauthorizedAccount",
      "type": "error"
    },
    {
      "inputs": [],
      "name": "ReentrancyGuardReentrantCall",
      "type": "error"
    },
    {
      "anonymous": false,
      "inputs": [
        {
          "indexed": true,
          "internalType": "address",
          "name": "user",
          "type": "address"
        },
        {
          "indexed": true,
          "internalType": "uint256",
          "name": "tokenId",
          "type": "uint256"
        }
      ],
      "name": "AdventurerClaimed",
      "type": "event"
    },
    {
      "anonymous": false,
      "inputs": [
        {
          "indexed": true,
          "internalType": "address",
          "name": "previousOwner",
          "type": "address"
        },
        {
          "indexed": true,
          "internalType": "address",
          "name": "newOwner",
          "type": "address"
        }
      ],
      "name": "OwnershipTransferred",
      "type": "event"
    },
    {
      "inputs": [],
      "name": "HATCH_PRICE",
      "outputs": [
        {
          "internalType": "uint256",
          "name": "",
          "type": "uint256"
        }
      ],
      "stateMutability": "view",
      "type": "function"
    },
    {
      "inputs": [],
      "name": "MAX_SUPPLY",
      "outputs": [
        {
          "internalType": "uint256",
          "name": "",
          "type": "uint256"
        }
      ],
      "stateMutability": "view",
      "type": "function"
    },
    {
      "inputs": [],
      "name": "claimAdventurer",
      "outputs": [],
      "stateMutability": "payable",
      "type": "function"
    },
    {
      "inputs": [],
      "name": "claimedCount",
      "outputs": [
        {
          "internalType": "uint256",
          "name": "",
          "type": "uint256"
        }
      ],
      "stateMutability": "view",
      "type": "function"
    },
    {
      "inputs": [
        {
          "internalType": "uint256",
          "name": "",
          "type": "uint256"
        }
      ],
      "name": "claimedTokenIds",
      "outputs": [
        {
          "internalType": "bool",
          "name": "",
          "type": "bool"
        }
      ],
      "stateMutability": "view",
      "type": "function"
    },
    {
      "inputs": [],
      "name": "getAvailableTokenCount",
      "outputs": [
        {
          "internalType": "uint256",
          "name": "",
          "type": "uint256"
        }
      ],
      "stateMutability": "view",
      "type": "function"
    },
    {
      "inputs": [],
      "name": "getClaimedTokenCount",
      "outputs": [
        {
          "internalType": "uint256",
          "name": "",
          "type": "uint256"
        }
      ],
      "stateMutability": "view",
      "type": "function"
    },
    {
      "inputs": [],
      "name": "nftContract",
      "outputs": [
        {
          "internalType": "address",
          "name": "",
          "type": "address"
        }
      ],
      "stateMutability": "view",
      "type": "function"
    },
    {
      "inputs": [],
      "name": "owner",
      "outputs": [
        {
          "internalType": "address",
          "name": "",
          "type": "address"
        }
      ],
      "stateMutability": "view",
      "type": "function"
    },
    {
      "inputs": [],
      "name": "renounceOwnership",
      "outputs": [],
      "stateMutability": "nonpayable",
      "type": "function"
    },
    {
      "inputs": [
        {
          "internalType": "uint256",
          "name": "tokenId",
          "type": "uint256"
        }
      ],
      "name": "setTokenClaimed",
      "outputs": [],
      "stateMutability": "nonpayable",
      "type": "function"
    },
    {
      "inputs": [
        {
          "internalType": "address",
          "name": "newOwner",
          "type": "address"
        }
      ],
      "name": "transferOwnership",
      "outputs": [],
      "stateMutability": "nonpayable",
      "type": "function"
    },
    {
      "inputs": [],
      "name": "treasury",
      "outputs": [
        {
          "internalType": "address",
          "name": "",
          "type": "address"
        }
      ],
      "stateMutability": "view",
      "type": "function"
    },
    {
      "stateMutability": "payable",
      "type": "receive"
    }
  ],
  "bytecode": "0x60c06040523480156200001157600080fd5b50604051620016aa380380620016aa833981810160405281019062000037919062000348565b33600073ffffffffffffffffffffffffffffffffffffffff168173ffffffffffffffffffffffffffffffffffffffff1603620000ad5760006040517f1e4fbdf7000000000000000000000000000000000000000000000000000000008152600401620000a49190620003a0565b60405180910390fd5b620000be816200021a60201b60201c565b5060018081905550600073ffffffffffffffffffffffffffffffffffffffff168273ffffffffffffffffffffffffffffffffffffffff160362000138576040517f08c379a00000000000000000000000000000000000000000000000000000000081526004016200012f906200041e565b60405180910390fd5b600073ffffffffffffffffffffffffffffffffffffffff168173ffffffffffffffffffffffffffffffffffffffff1603620001aa576040517f08c379a0000000000000000000000000000000000000000000000000000000008152600401620001a19062000490565b60405180910390fd5b8173ffffffffffffffffffffffffffffffffffffffff1660808173ffffffffffffffffffffffffffffffffffffffff16815250508073ffffffffffffffffffffffffffffffffffffffff1660a08173ffffffffffffffffffffffffffffffffffffffff16815250505050620004b2565b60008060009054906101000a900473ffffffffffffffffffffffffffffffffffffffff169050816000806101000a81548173ffffffffffffffffffffffffffffffffffffffff021916908373ffffffffffffffffffffffffffffffffffffffff1602179055508173ffffffffffffffffffffffffffffffffffffffff168173ffffffffffffffffffffffffffffffffffffffff167f8be0079c531659141344cd1fd0a4f28419497f9722a3daafe3b4186f6b6457e060405160405180910390a35050565b600080fd5b600073ffffffffffffffffffffffffffffffffffffffff82169050919050565b60006200031082620002e3565b9050919050565b620003228162000303565b81146200032e57600080fd5b50565b600081519050620003428162000317565b92915050565b60008060408385031215620003625762000361620002de565b5b6000620003728582860162000331565b9250506020620003858582860162000331565b9150509250929050565b6200039a8162000303565b82525050565b6000602082019050620003b760008301846200038f565b92915050565b600082825260208201905092915050565b7f496e76616c6964204e465420636f6e7472616374206164647265737300000000600082015250565b600062000406601c83620003bd565b91506200041382620003ce565b602082019050919050565b600060208201905081810360008301526200043981620003f7565b9050919050565b7f496e76616c696420747265617375727920616464726573730000000000000000600082015250565b600062000478601883620003bd565b9150620004858262000440565b602082019050919050565b60006020820190508181036000830152620004ab8162000469565b9050919050565b60805160a0516111b6620004f4600039600081816101440152818161054501528181610715015261078a0152600081816105cd01526106d901526111b66000f3fe6080604052600436106100c65760003560e01c8063715018a61161007f578063d537090411610059578063d537090414610394578063d56d229d146103bf578063d6beffeb146103ea578063f2fde38b146103f457610210565b8063715018a6146103275780638da5cb5b1461033e578063c08fa1a41461036957610210565b8063034b9904146102155780632713727a1461024057806332cb6b0c1461027d5780634d1106aa146102a857806361d027b3146102d157806368fd2efd146102fc57610210565b366102105767016345785d8a00003403610140573073ffffffffffffffffffffffffffffffffffffffff1663d6beffeb346040518263ffffffff1660e01b81526004016000604051808303818588803b15801561012257600080fd5b505af1158015610136573d6000803e3d6000fd5b505050505061020e565b60007f000000000000000000000000000000000000000000000000000000000000000073ffffffffffffffffffffffffffffffffffffffff163460405161018690610bb9565b60006040518083038185875af1925050503d80600081146101c3576040519150601f19603f3d011682016040523d82523d6000602084013e6101c8565b606091505b505090508061020c576040517f08c379a000000000000000000000000000000000000000000000000000000000815260040161020390610c2b565b60405180910390fd5b505b005b600080fd5b34801561022157600080fd5b5061022a61041d565b6040516102379190610c64565b60405180910390f35b34801561024c57600080fd5b5061026760048036038101906102629190610cb0565b610429565b6040516102749190610cf8565b60405180910390f35b34801561028957600080fd5b50610292610449565b60405161029f9190610c64565b60405180910390f35b3480156102b457600080fd5b506102cf60048036038101906102ca9190610cb0565b61044f565b005b3480156102dd57600080fd5b506102e6610543565b6040516102f39190610d54565b60405180910390f35b34801561030857600080fd5b50610311610567565b60405161031e9190610c64565b60405180910390f35b34801561033357600080fd5b5061033c610571565b005b34801561034a57600080fd5b50610353610585565b6040516103609190610d54565b60405180910390f35b34801561037557600080fd5b5061037e6105ae565b60405161038b9190610c64565b60405180910390f35b3480156103a057600080fd5b506103a96105b4565b6040516103b69190610c64565b60405180910390f35b3480156103cb57600080fd5b506103d46105cb565b6040516103e19190610d54565b60405180910390f35b6103f26105ef565b005b34801561040057600080fd5b5061041b60048036038101906104169190610d9b565b6108a2565b005b67016345785d8a000081565b60036020528060005260406000206000915054906101000a900460ff1681565b61271081565b610457610928565b612710811061049b576040517f08c379a000000000000000000000000000000000000000000000000000000000815260040161049290610e14565b60405180910390fd5b6003600082815260200190815260200160002060009054906101000a900460ff16156104fc576040517f08c379a00000000000000000000000000000000000000000000000000000000081526004016104f390610e80565b60405180910390fd5b60016003600083815260200190815260200160002060006101000a81548160ff0219169083151502179055506002600081548092919061053b90610ecf565b919050555050565b7f000000000000000000000000000000000000000000000000000000000000000081565b6000600254905090565b610579610928565b61058360006109af565b565b60008060009054906101000a900473ffffffffffffffffffffffffffffffffffffffff16905090565b60025481565b60006002546127106105c69190610f17565b905090565b7f000000000000000000000000000000000000000000000000000000000000000081565b6105f7610a73565b67016345785d8a00003414610641576040517f08c379a000000000000000000000000000000000000000000000000000000000815260040161063890610f97565b60405180910390fd5b61271060025410610687576040517f08c379a000000000000000000000000000000000000000000000000000000000815260040161067e90611029565b60405180910390fd5b6000610691610ab9565b905060016003600083815260200190815260200160002060006101000a81548160ff021916908315150217905550600260008154809291906106d290610ecf565b91905055507f000000000000000000000000000000000000000000000000000000000000000073ffffffffffffffffffffffffffffffffffffffff166323b872dd7f000000000000000000000000000000000000000000000000000000000000000033846040518463ffffffff1660e01b815260040161075493929190611049565b600060405180830381600087803b15801561076e57600080fd5b505af1158015610782573d6000803e3d6000fd5b5050505060007f000000000000000000000000000000000000000000000000000000000000000073ffffffffffffffffffffffffffffffffffffffff16346040516107cc90610bb9565b60006040518083038185875af1925050503d8060008114610809576040519150601f19603f3d011682016040523d82523d6000602084013e61080e565b606091505b5050905080610852576040517f08c379a000000000000000000000000000000000000000000000000000000000815260040161084990610c2b565b60405180910390fd5b813373ffffffffffffffffffffffffffffffffffffffff167f1698438c124846665bf3551d426f46fe4b8ff030ccfe14512b94a62c7f3519fd60405160405180910390a350506108a0610b77565b565b6108aa610928565b600073ffffffffffffffffffffffffffffffffffffffff168173ffffffffffffffffffffffffffffffffffffffff160361091c5760006040517f1e4fbdf70000000000000000000000000000000000000000000000000000000081526004016109139190610d54565b60405180910390fd5b610925816109af565b50565b610930610b80565b73ffffffffffffffffffffffffffffffffffffffff1661094e610585565b73ffffffffffffffffffffffffffffffffffffffff16146109ad57610971610b80565b6040517f118cdaa70000000000000000000000000000000000000000000000000000000081526004016109a49190610d54565b60405180910390fd5b565b60008060009054906101000a900473ffffffffffffffffffffffffffffffffffffffff169050816000806101000a81548173ffffffffffffffffffffffffffffffffffffffff021916908373ffffffffffffffffffffffffffffffffffffffff1602179055508173ffffffffffffffffffffffffffffffffffffffff168173ffffffffffffffffffffffffffffffffffffffff167f8be0079c531659141344cd1fd0a4f28419497f9722a3daafe3b4186f6b6457e060405160405180910390a35050565b600260015403610aaf576040517f3ee5aeb500000000000000000000000000000000000000000000000000000000815260040160405180910390fd5b6002600181905550565b6000806127106001600454610ace9190611080565b610ad891906110e3565b905060008190505b6003600082815260200190815260200160002060009054906101000a900460ff16610b1657806004819055508092505050610b74565b612710600182610b269190611080565b610b3091906110e3565b9050818103610ae0576040517f08c379a0000000000000000000000000000000000000000000000000000000008152600401610b6b90611160565b60405180910390fd5b90565b60018081905550565b600033905090565b600081905092915050565b50565b6000610ba3600083610b88565b9150610bae82610b93565b600082019050919050565b6000610bc482610b96565b9150819050919050565b600082825260208201905092915050565b7f5061796d656e7420666f7277617264696e67206661696c656400000000000000600082015250565b6000610c15601983610bce565b9150610c2082610bdf565b602082019050919050565b60006020820190508181036000830152610c4481610c08565b9050919050565b6000819050919050565b610c5e81610c4b565b82525050565b6000602082019050610c796000830184610c55565b92915050565b600080fd5b610c8d81610c4b565b8114610c9857600080fd5b50565b600081359050610caa81610c84565b92915050565b600060208284031215610cc657610cc5610c7f565b5b6000610cd484828501610c9b565b91505092915050565b60008115159050919050565b610cf281610cdd565b82525050565b6000602082019050610d0d6000830184610ce9565b92915050565b600073ffffffffffffffffffffffffffffffffffffffff82169050919050565b6000610d3e82610d13565b9050919050565b610d4e81610d33565b82525050565b6000602082019050610d696000830184610d45565b92915050565b610d7881610d33565b8114610d8357600080fd5b50565b600081359050610d9581610d6f565b92915050565b600060208284031215610db157610db0610c7f565b5b6000610dbf84828501610d86565b91505092915050565b7f496e76616c696420746f6b656e20494400000000000000000000000000000000600082015250565b6000610dfe601083610bce565b9150610e0982610dc8565b602082019050919050565b60006020820190508181036000830152610e2d81610df1565b9050919050565b7f546f6b656e20616c726561647920636c61696d65640000000000000000000000600082015250565b6000610e6a601583610bce565b9150610e7582610e34565b602082019050919050565b60006020820190508181036000830152610e9981610e5d565b9050919050565b7f4e487b7100000000000000000000000000000000000000000000000000000000600052601160045260246000fd5b6000610eda82610c4b565b91507fffffffffffffffffffffffffffffffffffffffffffffffffffffffffffffffff8203610f0c57610f0b610ea0565b5b600182019050919050565b6000610f2282610c4b565b9150610f2d83610c4b565b9250828203905081811115610f4557610f44610ea0565b5b92915050565b7f496e636f7272656374207061796d656e7420616d6f756e740000000000000000600082015250565b6000610f81601883610bce565b9150610f8c82610f4b565b602082019050919050565b60006020820190508181036000830152610fb081610f74565b9050919050565b7f416c6c20616476656e7475726572732068617665206265656e20636c61696d6560008201527f6400000000000000000000000000000000000000000000000000000000000000602082015250565b6000611013602183610bce565b915061101e82610fb7565b604082019050919050565b6000602082019050818103600083015261104281611006565b9050919050565b600060608201905061105e6000830186610d45565b61106b6020830185610d45565b6110786040830184610c55565b949350505050565b600061108b82610c4b565b915061109683610c4b565b92508282019050808211156110ae576110ad610ea0565b5b92915050565b7f4e487b7100000000000000000000000000000000000000000000000000000000600052601260045260246000fd5b60006110ee82610c4b565b91506110f983610c4b565b925082611109576111086110b4565b5b828206905092915050565b7f4e6f20756e636c61696d656420746f6b656e7320617661696c61626c65000000600082015250565b600061114a601d83610bce565b915061115582611114565b602082019050919050565b600060208201905081810360008301526111798161113d565b905091905056fea2646970667358221220e0a81421e2575fdb1e7ae393a8cb4de568401e46d126f47c1919a49bb4cadd4664736f6c63430008140033",
  "linkReferences": {},
  "deployedLinkReferences": {}
}