{
  "_format": "hh-sol-artifact-1",
  "contractName": "ElementalHatcherAuto",
  "sourceName": "contracts/ElementalHatcherAuto.sol",
  "abi": [
    {
      "inputs": [
        {
          "internalType": "address",
          "name": "_nftContract",
          "type": "address"
        },
        {
          "internalType": "address",
          "name": "_treasury",
          "type": "address"
        }
      ],
      "stateMutability": "nonpayable",
      "type": "constructor"
    },
    {
      "inputs": [
        {
          "internalType": "address",
          "name": "owner",
          "type": "address"
        }
      ],
      "name": "OwnableInvalidOwner",
      "type": "error"
    },
    {
      "inputs": [
        {
          "internalType": "address",
          "name": "account",
          "type": "address"
        }
      ],
      "name": "OwnableUnauthorizedAccount",
      "type": "error"
    },
    {
      "inputs": [],
      "name": "ReentrancyGuardReentrantCall",
      "type": "error"
    },
    {
      "anonymous": false,
      "inputs": [
        {
          "indexed": true,
          "internalType": "address",
          "name": "user",
          "type": "address"
        },
        {
          "indexed": true,
          "internalType": "uint256",
          "name": "tokenId",
          "type": "uint256"
        }
      ],
      "name": "AdventurerClaimed",
      "type": "event"
    },
    {
      "anonymous": false,
      "inputs": [
        {
          "indexed": true,
          "internalType": "address",
          "name": "previousOwner",
          "type": "address"
        },
        {
          "indexed": true,
          "internalType": "address",
          "name": "newOwner",
          "type": "address"
        }
      ],
      "name": "OwnershipTransferred",
      "type": "event"
    },
    {
      "inputs": [],
      "name": "HATCH_PRICE",
      "outputs": [
        {
          "internalType": "uint256",
          "name": "",
          "type": "uint256"
        }
      ],
      "stateMutability": "view",
      "type": "function"
    },
    {
      "inputs": [],
      "name": "MAX_SUPPLY",
      "outputs": [
        {
          "internalType": "uint256",
          "name": "",
          "type": "uint256"
        }
      ],
      "stateMutability": "view",
      "type": "function"
    },
    {
      "inputs": [],
      "name": "claimAdventurer",
      "outputs": [],
      "stateMutability": "payable",
      "type": "function"
    },
    {
      "inputs": [],
      "name": "claimedCount",
      "outputs": [
        {
          "internalType": "uint256",
          "name": "",
          "type": "uint256"
        }
      ],
      "stateMutability": "view",
      "type": "function"
    },
    {
      "inputs": [
        {
          "internalType": "uint256",
          "name": "",
          "type": "uint256"
        }
      ],
      "name": "claimedTokenIds",
      "outputs": [
        {
          "internalType": "bool",
          "name": "",
          "type": "bool"
        }
      ],
      "stateMutability": "view",
      "type": "function"
    },
    {
      "inputs": [],
      "name": "getAvailableTokenCount",
      "outputs": [
        {
          "internalType": "uint256",
          "name": "",
          "type": "uint256"
        }
      ],
      "stateMutability": "view",
      "type": "function"
    },
    {
      "inputs": [],
      "name": "getClaimedTokenCount",
      "outputs": [
        {
          "internalType": "uint256",
          "name": "",
          "type": "uint256"
        }
      ],
      "stateMutability": "view",
      "type": "function"
    },
    {
      "inputs": [],
      "name": "nftContract",
      "outputs": [
        {
          "internalType": "address",
          "name": "",
          "type": "address"
        }
      ],
      "stateMutability": "view",
      "type": "function"
    },
    {
      "inputs": [],
      "name": "owner",
      "outputs": [
        {
          "internalType": "address",
          "name": "",
          "type": "address"
        }
      ],
      "stateMutability": "view",
      "type": "function"
    },
    {
      "inputs": [],
      "name": "renounceOwnership",
      "outputs": [],
      "stateMutability": "nonpayable",
      "type": "function"
    },
    {
      "inputs": [
        {
          "internalType": "address",
          "name": "newOwner",
          "type": "address"
        }
      ],
      "name": "transferOwnership",
      "outputs": [],
      "stateMutability": "nonpayable",
      "type": "function"
    },
    {
      "inputs": [],
      "name": "treasury",
      "outputs": [
        {
          "internalType": "address",
          "name": "",
          "type": "address"
        }
      ],
      "stateMutability": "view",
      "type": "function"
    },
    {
      "stateMutability": "payable",
      "type": "receive"
    }
  ],
  "bytecode": "0x60c06040523480156200001157600080fd5b506040516200158438038062001584833981810160405281019062000037919062000348565b33600073ffffffffffffffffffffffffffffffffffffffff168173ffffffffffffffffffffffffffffffffffffffff1603620000ad5760006040517f1e4fbdf7000000000000000000000000000000000000000000000000000000008152600401620000a49190620003a0565b60405180910390fd5b620000be816200021a60201b60201c565b5060018081905550600073ffffffffffffffffffffffffffffffffffffffff168273ffffffffffffffffffffffffffffffffffffffff160362000138576040517f08c379a00000000000000000000000000000000000000000000000000000000081526004016200012f906200041e565b60405180910390fd5b600073ffffffffffffffffffffffffffffffffffffffff168173ffffffffffffffffffffffffffffffffffffffff1603620001aa576040517f08c379a0000000000000000000000000000000000000000000000000000000008152600401620001a19062000490565b60405180910390fd5b8173ffffffffffffffffffffffffffffffffffffffff1660808173ffffffffffffffffffffffffffffffffffffffff16815250508073ffffffffffffffffffffffffffffffffffffffff1660a08173ffffffffffffffffffffffffffffffffffffffff16815250505050620004b2565b60008060009054906101000a900473ffffffffffffffffffffffffffffffffffffffff169050816000806101000a81548173ffffffffffffffffffffffffffffffffffffffff021916908373ffffffffffffffffffffffffffffffffffffffff1602179055508173ffffffffffffffffffffffffffffffffffffffff168173ffffffffffffffffffffffffffffffffffffffff167f8be0079c531659141344cd1fd0a4f28419497f9722a3daafe3b4186f6b6457e060405160405180910390a35050565b600080fd5b600073ffffffffffffffffffffffffffffffffffffffff82169050919050565b60006200031082620002e3565b9050919050565b620003228162000303565b81146200032e57600080fd5b50565b600081519050620003428162000317565b92915050565b60008060408385031215620003625762000361620002de565b5b6000620003728582860162000331565b9250506020620003858582860162000331565b9150509250929050565b6200039a8162000303565b82525050565b6000602082019050620003b760008301846200038f565b92915050565b600082825260208201905092915050565b7f496e76616c6964204e465420636f6e7472616374206164647265737300000000600082015250565b600062000406601c83620003bd565b91506200041382620003ce565b602082019050919050565b600060208201905081810360008301526200043981620003f7565b9050919050565b7f496e76616c696420747265617375727920616464726573730000000000000000600082015250565b600062000478601883620003bd565b9150620004858262000440565b602082019050919050565b60006020820190508181036000830152620004ab8162000469565b9050919050565b60805160a051611090620004f4600039600081816101290152818161040d015281816105dd015261065201526000818161049501526105a101526110906000f3fe6080604052600436106100ab5760003560e01c80638da5cb5b116100645780638da5cb5b146102fa578063c08fa1a414610325578063d537090414610350578063d56d229d1461037b578063d6beffeb146103a6578063f2fde38b146103b0576101f5565b8063034b9904146101fa5780632713727a1461022557806332cb6b0c1461026257806361d027b31461028d57806368fd2efd146102b8578063715018a6146102e3576101f5565b366101f55767016345785d8a00003403610125573073ffffffffffffffffffffffffffffffffffffffff1663d6beffeb346040518263ffffffff1660e01b81526004016000604051808303818588803b15801561010757600080fd5b505af115801561011b573d6000803e3d6000fd5b50505050506101f3565b60007f000000000000000000000000000000000000000000000000000000000000000073ffffffffffffffffffffffffffffffffffffffff163460405161016b90610ab4565b60006040518083038185875af1925050503d80600081146101a8576040519150601f19603f3d011682016040523d82523d6000602084013e6101ad565b606091505b50509050806101f1576040517f08c379a00000000000000000000000000000000000000000000000000000000081526004016101e890610b26565b60405180910390fd5b505b005b600080fd5b34801561020657600080fd5b5061020f6103d9565b60405161021c9190610b5f565b60405180910390f35b34801561023157600080fd5b5061024c60048036038101906102479190610bab565b6103e5565b6040516102599190610bf3565b60405180910390f35b34801561026e57600080fd5b50610277610405565b6040516102849190610b5f565b60405180910390f35b34801561029957600080fd5b506102a261040b565b6040516102af9190610c4f565b60405180910390f35b3480156102c457600080fd5b506102cd61042f565b6040516102da9190610b5f565b60405180910390f35b3480156102ef57600080fd5b506102f8610439565b005b34801561030657600080fd5b5061030f61044d565b60405161031c9190610c4f565b60405180910390f35b34801561033157600080fd5b5061033a610476565b6040516103479190610b5f565b60405180910390f35b34801561035c57600080fd5b5061036561047c565b6040516103729190610b5f565b60405180910390f35b34801561038757600080fd5b50610390610493565b60405161039d9190610c4f565b60405180910390f35b6103ae6104b7565b005b3480156103bc57600080fd5b506103d760048036038101906103d29190610c96565b61076a565b005b67016345785d8a000081565b60036020528060005260406000206000915054906101000a900460ff1681565b61271081565b7f000000000000000000000000000000000000000000000000000000000000000081565b6000600254905090565b6104416107f0565b61044b6000610877565b565b60008060009054906101000a900473ffffffffffffffffffffffffffffffffffffffff16905090565b60025481565b600060025461271061048e9190610cf2565b905090565b7f000000000000000000000000000000000000000000000000000000000000000081565b6104bf61093b565b67016345785d8a00003414610509576040517f08c379a000000000000000000000000000000000000000000000000000000000815260040161050090610d72565b60405180910390fd5b6127106002541061054f576040517f08c379a000000000000000000000000000000000000000000000000000000000815260040161054690610e04565b60405180910390fd5b6000610559610981565b905060016003600083815260200190815260200160002060006101000a81548160ff0219169083151502179055506002600081548092919061059a90610e24565b91905055507f000000000000000000000000000000000000000000000000000000000000000073ffffffffffffffffffffffffffffffffffffffff166323b872dd7f000000000000000000000000000000000000000000000000000000000000000033846040518463ffffffff1660e01b815260040161061c93929190610e6c565b600060405180830381600087803b15801561063657600080fd5b505af115801561064a573d6000803e3d6000fd5b5050505060007f000000000000000000000000000000000000000000000000000000000000000073ffffffffffffffffffffffffffffffffffffffff163460405161069490610ab4565b60006040518083038185875af1925050503d80600081146106d1576040519150601f19603f3d011682016040523d82523d6000602084013e6106d6565b606091505b505090508061071a576040517f08c379a000000000000000000000000000000000000000000000000000000000815260040161071190610b26565b60405180910390fd5b813373ffffffffffffffffffffffffffffffffffffffff167f1698438c124846665bf3551d426f46fe4b8ff030ccfe14512b94a62c7f3519fd60405160405180910390a35050610768610a72565b565b6107726107f0565b600073ffffffffffffffffffffffffffffffffffffffff168173ffffffffffffffffffffffffffffffffffffffff16036107e45760006040517f1e4fbdf70000000000000000000000000000000000000000000000000000000081526004016107db9190610c4f565b60405180910390fd5b6107ed81610877565b50565b6107f8610a7b565b73ffffffffffffffffffffffffffffffffffffffff1661081661044d565b73ffffffffffffffffffffffffffffffffffffffff161461087557610839610a7b565b6040517f118cdaa700000000000000000000000000000000000000000000000000000000815260040161086c9190610c4f565b60405180910390fd5b565b60008060009054906101000a900473ffffffffffffffffffffffffffffffffffffffff169050816000806101000a81548173ffffffffffffffffffffffffffffffffffffffff021916908373ffffffffffffffffffffffffffffffffffffffff1602179055508173ffffffffffffffffffffffffffffffffffffffff168173ffffffffffffffffffffffffffffffffffffffff167f8be0079c531659141344cd1fd0a4f28419497f9722a3daafe3b4186f6b6457e060405160405180910390a35050565b600260015403610977576040517f3ee5aeb500000000000000000000000000000000000000000000000000000000815260040160405180910390fd5b6002600181905550565b6000806127104244336002546040516020016109a09493929190610f0c565b6040516020818303038152906040528051906020012060001c6109c39190610f89565b905060005b612710811015610a3357600061271082846109e39190610fba565b6109ed9190610f89565b90506003600082815260200190815260200160002060009054906101000a900460ff16610a1f57809350505050610a6f565b508080610a2b90610e24565b9150506109c8565b506040517f08c379a0000000000000000000000000000000000000000000000000000000008152600401610a669061103a565b60405180910390fd5b90565b60018081905550565b600033905090565b600081905092915050565b50565b6000610a9e600083610a83565b9150610aa982610a8e565b600082019050919050565b6000610abf82610a91565b9150819050919050565b600082825260208201905092915050565b7f5061796d656e7420666f7277617264696e67206661696c656400000000000000600082015250565b6000610b10601983610ac9565b9150610b1b82610ada565b602082019050919050565b60006020820190508181036000830152610b3f81610b03565b9050919050565b6000819050919050565b610b5981610b46565b82525050565b6000602082019050610b746000830184610b50565b92915050565b600080fd5b610b8881610b46565b8114610b9357600080fd5b50565b600081359050610ba581610b7f565b92915050565b600060208284031215610bc157610bc0610b7a565b5b6000610bcf84828501610b96565b91505092915050565b60008115159050919050565b610bed81610bd8565b82525050565b6000602082019050610c086000830184610be4565b92915050565b600073ffffffffffffffffffffffffffffffffffffffff82169050919050565b6000610c3982610c0e565b9050919050565b610c4981610c2e565b82525050565b6000602082019050610c646000830184610c40565b92915050565b610c7381610c2e565b8114610c7e57600080fd5b50565b600081359050610c9081610c6a565b92915050565b600060208284031215610cac57610cab610b7a565b5b6000610cba84828501610c81565b91505092915050565b7f4e487b7100000000000000000000000000000000000000000000000000000000600052601160045260246000fd5b6000610cfd82610b46565b9150610d0883610b46565b9250828203905081811115610d2057610d1f610cc3565b5b92915050565b7f496e636f7272656374207061796d656e7420616d6f756e740000000000000000600082015250565b6000610d5c601883610ac9565b9150610d6782610d26565b602082019050919050565b60006020820190508181036000830152610d8b81610d4f565b9050919050565b7f416c6c20616476656e7475726572732068617665206265656e20636c61696d6560008201527f6400000000000000000000000000000000000000000000000000000000000000602082015250565b6000610dee602183610ac9565b9150610df982610d92565b604082019050919050565b60006020820190508181036000830152610e1d81610de1565b9050919050565b6000610e2f82610b46565b91507fffffffffffffffffffffffffffffffffffffffffffffffffffffffffffffffff8203610e6157610e60610cc3565b5b600182019050919050565b6000606082019050610e816000830186610c40565b610e8e6020830185610c40565b610e9b6040830184610b50565b949350505050565b6000819050919050565b610ebe610eb982610b46565b610ea3565b82525050565b60008160601b9050919050565b6000610edc82610ec4565b9050919050565b6000610eee82610ed1565b9050919050565b610f06610f0182610c2e565b610ee3565b82525050565b6000610f188287610ead565b602082019150610f288286610ead565b602082019150610f388285610ef5565b601482019150610f488284610ead565b60208201915081905095945050505050565b7f4e487b7100000000000000000000000000000000000000000000000000000000600052601260045260246000fd5b6000610f9482610b46565b9150610f9f83610b46565b925082610faf57610fae610f5a565b5b828206905092915050565b6000610fc582610b46565b9150610fd083610b46565b9250828201905080821115610fe857610fe7610cc3565b5b92915050565b7f4e6f20756e636c61696d656420746f6b656e7320617661696c61626c65000000600082015250565b6000611024601d83610ac9565b915061102f82610fee565b602082019050919050565b6000602082019050818103600083015261105381611017565b905091905056fea2646970667358221220b40a01c974f20e0267addf8118f2bc2fe0ad3569c4f9cef204a6c82b140ea6a964736f6c63430008140033",
  "linkReferences": {},
  "deployedLinkReferences": {}
}